:1000000035C1000064C1000062C1000060C1000091
:100010005EC100005CC100005AC1000058C1000070
:1000200056C1000054C1000052C1000050C1000080
:100030004EC100004CC100004AC1000048C1000090
:1000400046C1000044C1000042C1000040C10000A0
:100050003EC100003CC100003AC1000024C50000C0
:1000600036C1000014C40000E9C3000030C1000024
:100070002EC100002CC100002AC1000028C10000D0
:1000800026C1000024C1000022C1000020C10000E0
:100090001EC100001CC100001AC1000027C60000DC
:1000A00016C1000014C1000012C1000010C1000000
:1000B0000EC100000CC100000AC100000C9413180E
:1000C00006C1000004C1000002C1000000C1000020
:1000D000FEC00000FCC000007CC3000051C3000053
:1000E000F6C00000A302A602950299029F02DD025B
:1000F000AA02AE02B402B802BC02C202C602CA021E
:10010000DD02D002D402D80239113E114711531139
:100110005A11631168116D117211721172117211FD
:100120007211721172117711A211B111C1110B125A
:10013000231270127C12AC12FA12FA12FA12FA128C
:10014000FA12FA12FA12F512000021002400270018
:100150002A002D00300033000101000004010701D6
:100160000A0100002200250028002B002E0031008B
:10017000340002010000050108010B01000020000D
:100180002300260029002C002F003200000100006F
:10019000030106010901050505050705080808080A
:1001A000020202020A0A080804040404010101010F
:1001B000010101010303030303030303040707070A
:1001C0000C0C0C0C0C0C0C0C0202020206060606AF
:1001D000060606060B0B0B0B0B0B0B0B010210207C
:1001E000200808102040102040800201020108046D
:1001F0000201010204081020408080402010080401
:100200000201800402018040201008040201080459
:10021000020101020408102040800102040810209D
:10022000408000000A0B02090C0D0E0807030401B0
:1002300000000000000000000000000000000000BE
:10024000000000000000000000000000000012118B
:10025000100000000000000000000000000000008E
:1002600000000000000000000628EE2711241FBE39
:10027000CFEFD1E2DEBFCDBF00E00CBF13E0A0E0C6
:10028000B2E0E6EEF4E500E00BBF02C007900D928D
:10029000A43FB107D9F72AE0A4EFB3E001C01D9253
:1002A000AE30B207E1F711E0C5E3D1E000E006C0EF
:1002B00021970109802FFE010E941A29C433D1071A
:1002C00080E00807A9F70E94DD220C94622A98CEEC
:1002D000CF92DF92EF92FF920F931F93CF93DF9312
:1002E0006C017A018B01C0E0D0E0CE15DF0589F00A
:1002F000D8016D918D01D601ED91FC910190F081B5
:10030000E02DC6011995892B11F47E0102C02196BA
:10031000ECCFC701DF91CF911F910F91FF90EF902C
:10032000DF90CF900895FC01918D828D981759F040
:10033000828DDF01A80FB11D5D968C91928D9F5F1C
:10034000928F90E008958FEF9FEF0895FC01918DBB
:10035000828D981731F0828DE80FF11D858D90E028
:1003600008958FEF9FEF0895FC01918D828D981B6A
:10037000892F90E0089581E196E0F6DF21E0892B56
:1003800009F420E0822F08958EE697E0EDDF21E06A
:10039000892B09F420E0822F0895FC01848DDF0170
:1003A000A80FB11DA35EBE4F2C91848D90E00196E5
:1003B0008F739927848FA689B7892C93A089B189D7
:1003C0008C9180648C93938D848D981306C00288E1
:1003D000F389E02D80818F7D80830895EF92FF92D5
:1003E0000F931F93CF93DF93EC0181E0888F9B8D58
:1003F0008C8D981305C0E889F989808185FD23C01B
:10040000F62E0B8D10E00F5F1F4F0F731127E02E9C
:100410008C8DE8120BC00FB607FCFACFE889F9897A
:10042000808185FFF5CFCE01B8DFF2CF8B8DFE0145
:10043000E80FF11DE35EFE4FF0820B8FEA89FB8926
:100440008081806207C0EE89FF896083E889F9892D
:1004500080818064808381E090E0DF91CF911F9163
:100460000F91FF90EF900895CF93DF93EC01888D6B
:100470008823C1F0EA89FB89808185FD05C0A889B0
:10048000B9898C9186FD0EC00FB607FCF5CF80812F
:1004900085FFF2CFA889B9898C9185FFEDCFCE0178
:1004A0007CDFE8CFDF91CF91089580E090E0892B49
:1004B00019F06ADF811120C080E090E0892B41F0C3
:1004C00080E090E0892B21F00E940000811117C08C
:1004D00080E090E0892B41F080E090E0892B21F0D2
:1004E0000E94000081110EC080E090E0892B79F01D
:1004F00042DF81110AC008950E940000DDCF0E94F2
:100500000000E6CF0E940000EFCF0C940000089599
:1005100090E0FC013197E231F10508F04EC08827E8
:10052000EE58FF4F8F4F0C941A29809180008F77DF
:1005300003C0809180008F7D80938000089580911A
:100540008000877FF9CF84B58F7702C084B58F7D17
:1005500084BD08958091B0008F7703C08091B00072
:100560008F7D8093B0000895809190008F7707C0B1
:10057000809190008F7D03C080919000877F809351
:10058000900008958091A0008F7707C08091A0000F
:100590008F7D03C08091A000877F8093A000089585
:1005A000809120018F7707C0809120018F7D03C04B
:1005B00080912001877F8093200108953FB7F894B0
:1005C0008091A4059091A505A091A605B091A705DD
:1005D00026B5A89B05C02F3F19F00196A11DB11D9E
:1005E0003FBFBA2FA92F982F8827820F911DA11DD9
:1005F000B11DBC01CD0142E0660F771F881F991F16
:100600004A95D1F7089585ED8093BC008091BC0098
:1006100084FDFCCF1092EE05089540917A05262FB7
:1006200030E0240F311D21323105DCF42091EE053C
:100630002430C9F4FC0180E090E0861758F4309132
:100640007A052191DC01A85ABA4FA30FB11D2C9352
:100650000196F3CF80917A05680F60937A0580E068
:10066000089581E0089582E008950895E091CE080C
:100670008091CD08E81730F4F0E0E855FA4F80811A
:1006800090E008958FEF9FEF08959091CE088091AC
:10069000CD08981750F4E92FF0E0E855FA4F208183
:1006A00030E09F5F9093CE0802C02FEF3FEFC9016B
:1006B00008958091CD0890E02091CE08821B910989
:1006C0000895CF92DF92EF92FF920F931F93CF93F3
:1006D000DF937C01262F972F8A018091EF058823D5
:1006E00091F0C62FD72F6E01C40ED51ECC15DD0597
:1006F00069F06991D701ED91FC910190F081E02DB5
:10070000C7011995F3CF642F822F87DFC801DF91CE
:10071000CF911F910F91FF90EF90DF90CF900895B0
:10072000CF93DF931F92CDB7DEB769832091EF059A
:100730002223D1F02091CB08203240F021E030E09C
:10074000FC013383228380E090E014C08091CC08C8
:10075000E82FF0E0E051FA4F998190838F5F80930A
:10076000CC088093CB0804C061E0CE01019655DF30
:1007700081E090E00F90DF91CF9108950E945E2A72
:100780001F920F920FB60F9211240BB60F922F9358
:100790003F934F935F936F937F938F939F93AF9309
:1007A000BF93EF93FF9381E196E0F7DDFF91EF9127
:1007B000BF91AF919F918F917F916F915F914F9179
:1007C0003F912F910F900BBE0F900FBE0F901F9077
:1007D00018951F920F920FB60F9211240BB60F921D
:1007E0002F938F939F93EF93FF93E0912106F091C6
:1007F00022068081E0912706F091280682FD11C033
:10080000908180912A068F5F20912B06821751F0EC
:10081000E0912A06F0E0EF5EF94F958F80932A066B
:1008200001C08081FF91EF919F918F912F910F9047
:100830000BBE0F900FBE0F901F9018951F920F9236
:100840000FB60F9211240BB60F922F933F934F9335
:100850005F936F937F938F939F93AF93BF93EF9328
:10086000FF938EE697E099DDFF91EF91BF91AF91F5
:100870009F918F917F916F915F914F913F912F91B8
:100880000F900BBE0F900FBE0F901F9018951F92E8
:100890000F920FB60F9211240BB60F922F938F93D6
:1008A0009F93EF93FF93E0917E07F0917F07808104
:1008B000E0918407F091850782FD11C090818091BD
:1008C00087078F5F20918807821751F0E091870793
:1008D000F0E0E259F84F958F8093870701C080813F
:1008E000FF91EF919F918F912F910F900BBE0F90E1
:1008F0000FBE0F901F901895CF93DF93282F30E0F5
:10090000F901EE5DFD4F8491F901E452FE4FD4915F
:10091000F901EA56FE4FC491CC2389F08111F8DD2C
:10092000EC2FF0E0EE0FFF1FE458FE4FA591B491BD
:10093000EC91ED2381E090E021F480E002C080E0C2
:1009400090E0DF91CF9108951F93CF93DF93282FED
:1009500030E0F901EE5DFD4F8491F901E452FE4F64
:10096000D491F901EA56FE4FC491CC23C1F0162F61
:100970008111CEDDEC2FF0E0EE0FFF1FEE59FE4FA0
:10098000A591B4918FB7F894111105C09C91ED2FEA
:10099000E095E92302C0EC91ED2BEC938FBFDF9142
:1009A000CF911F910895CF93DF9390E0FC01E45223
:1009B000FE4F2491FC01EA56FE4F8491882361F199
:1009C00090E0880F991FFC01E85BFE4FC591D49120
:1009D000FC01EE59FE4FA591B491611109C09FB77A
:1009E000F8948881209582238883EC912E230BC074
:1009F000623061F49FB7F8943881822F8095832309
:100A00008883EC912E2B2C939FBF06C08FB7F89450
:100A1000E8812E2B28838FBFDF91CF9108958F928D
:100A20009F92AF92BF92CF92DF92EF92FF926B01B3
:100A30007C01C4DD4B015C01C114D104E104F1046B
:100A4000E9F0BCDDDC01CB0188199909AA09BB09D1
:100A5000883E9340A105B10578F321E0C21AD10880
:100A6000E108F10888EE880E83E0981EA11CB11CF5
:100A7000C114D104E104F10421F7DECFFF90EF901F
:100A8000DF90CF90BF90AF909F908F9008952FB739
:100A9000F8946091A0057091A1058091A2059091B4
:100AA000A3052FBF08951F920F920FB60F92112426
:100AB0002F933F938F939F93AF93BF938091A00504
:100AC0009091A105A091A205B091A30530919F0539
:100AD00023E0230F2D3720F40196A11DB11D05C081
:100AE00026E8230F0296A11DB11D20939F05809338
:100AF000A0059093A105A093A205B093A3058091B2
:100B0000A4059091A505A091A605B091A705019611
:100B1000A11DB11D8093A4059093A505A093A605E2
:100B2000B093A705BF91AF919F918F913F912F9166
:100B30000F900FBE0F901F901895EF92FF920F939A
:100B40001F93CF93DF93EC017B01FB01048115819F
:100B50001D830C83C80108969B838A83880F991F85
:100B60000E94312988839983FC0120E030E020171E
:100B7000310791F0E701A881B981C901880F991F58
:100B8000A80FB91F309721F08D919C91918380839C
:100B90002F5F3F4F3296EBCFDF91CF911F910F9197
:100BA000FF90EF900895FC01808191810C94C629FB
:100BB000DC0197E0FB0101900D929A95E1F7089511
:100BC000EF92FF920F931F93CF93DF931F921F9289
:100BD000CDB7DEB77C018B01BE016F5F7F4F4A83CB
:100BE0000E94401D4A81443008F043E0F801E40FC0
:100BF000F11D848D882389F0B801442361F04130D0
:100C000019F4695F7F4F07C0423019F4625F7F4F6C
:100C100002C06B5E7F4FC701FCD4C7010F900F90DD
:100C2000DF91CF911F910F91FF90EF900895FC01FC
:100C3000962FB901943008F093E0DF01A90FB11DA0
:100C4000493108F048E15C964C93923049F093307A
:100C500051F0913011F0CF0108C0CF01079605C0C7
:100C6000CF010E9602C0CF014596D3C4CF93DF9338
:100C7000EC0145960E94311DCE010E960E94311D59
:100C8000CE0107960E94311DCE01DF91CF910C94C9
:100C9000311D0F931F93CF93DF931F92CDB7DEB714
:100CA0008C01BE016F5F7F4F0E94401DBE016F5FD0
:100CB0007F4FC80107960E94401DBE016F5F7F4FA6
:100CC000C8010E960E94401DBE016F5F7F4FC80194
:100CD00045960E94401DF801148E158E168E178EB3
:100CE0000F90DF91CF911F910F9108951F920F9256
:100CF0000FB60F9211240BB60F922F933F934F9381
:100D00005F936F937F938F939F93AF93BF93EF9373
:100D1000FF938091B900887F803609F49CC068F504
:100D2000883209F45BC090F4803109F454C038F47F
:100D3000882309F4F6C0883009F44DC0F5C0883125
:100D400009F44CC0803209F45DC0EEC0803409F46F
:100D500068C048F4803309F455C0883309F0E4C012
:100D60008093EC05D8C0803509F44FC0883509F46C
:100D70005DC0883409F0D8C0D6C0883909F4C7C02E
:100D8000A8F4883709F467C038F4883609F463C0DA
:100D9000803709F460C0C8C0883809F4B8C0803909
:100DA00009F45FC0803809F0BFC05BC0803B09F424
:100DB00086C038F4803A09F466C0883A09F47FC0E6
:100DC000B3C0803C09F4A7C0883C09F4A4C0883BA8
:100DD00009F48AC0A9C08091C90510C09091EB05A3
:100DE0008091EA05981770F5E091EB0581E08E0F90
:100DF0008093EB05F0E0E653FA4F80818093BB00CF
:100E000085EC86C08093EC058EC0E091EB0581E017
:100E10008E0F8093EB058091BB00F0E0E653FA4F14
:100E200080839091EB058091EA056EC0E091EB051F
:100E300081E08E0F8093EB058091BB00F0E0E653DC
:100E4000FA4F80838091ED0581116DC081E0809320
:100E5000C80584EA61C083E08093EE0510929E0588
:100E6000CFCF80919E05803208F051C0E0919E0561
:100E700081E08E0F80939E058091BB00F0E0E258E8
:100E8000FA4F8083BDCF85EC8093BC001092EE05B5
:100E900080919E05803230F4E0919E05F0E0E258AA
:100EA000FA4F108260919E0570E0E0917C05F09110
:100EB0007D058EE795E0199510929E0535C084E07A
:100EC0008093EE0510927B0510927A05E0917805EB
:100ED000F0917905199580917A05811105C081E01D
:100EE00080937A0510925805E0917B0581E08E0F82
:100EF00080937B05F0E0E85AFA4F80818093BB0035
:100F000090917B0580917A05981708F479CF85E850
:100F10008093BC0009C085EC8093BC001092EE0564
:100F200003C01092EC056FDBFF91EF91BF91AF9181
:100F30009F918F917F916F915F914F913F912F91F1
:100F40000F900BBE0F900FBE0F901F901895109230
:100F5000EE0581E08093ED051092C80561E084E123
:100F6000F3DC61E085E1F0DCE9EBF0E080818E7F8D
:100F7000808380818D7F808388E48093B80085E4BE
:100F80008093BC000895FB01CA01309711F0622FD5
:100F900019940895DC0112968D919C911397DC01B0
:100FA000ED91FC910480F581E02D199521E0181652
:100FB00019060CF020E0822F08954F925F926F92F5
:100FC0007F928F929F92AF92BF92CF92DF92EF92D9
:100FD000FF920F931F93CF93DF935C012801390198
:100FE000DC0112968D919C911397892B41F1480158
:100FF0006801CC0CDD1CCC0CDD1CB5E0CB1AD10893
:10100000EB017B01E40EF51ECE15DF05C1F0F50105
:10101000828193816991DC01ED91FC910190F081D5
:10102000E02D1995411451046104710469F3B2E093
:101030008B16910448F3C6010197F1F7E5CFDF91D4
:10104000CF911F910F91FF90EF90DF90CF90BF90C5
:10105000AF909F908F907F906F905F904F9008958A
:10106000FC01680F791F80E0E617F70719F09191EE
:10107000890FFACF81950895CF93DF93362FDA0148
:101080006530C1F1A0F4623051F148F4662319F1E2
:10109000613009F043C0FC01628D738D23C0633061
:1010A00029F16430D9F5EC0168A179A11BC0623641
:1010B00049F140F4603611F1613681F5FC0166A119
:1010C00077A110C0643631F108F1653639F5FC01BD
:1010D00066A577A507C0EC01688D798D03C0EC018A
:1010E0006C8D7D8DAD01DF91CF914DCFFC01668D73
:1010F000778DF8CFFC0162A173A1F4CFEC016CA154
:101100007DA1F0CFEC0168A579A5ECCFFC0162A52B
:1011100073A5E8CFEC016CA57DA5E4CFEC01EA85D1
:10112000FB85309731F0422FBD01832FDF91CF91A6
:101130001994DF91CF9108950F931F93CF93DF936D
:10114000EC01088119817B836A838AE0282F269F1E
:10115000C001279F900D11240E9431299983888313
:10116000A80180E090E06AE02C813D81821793071E
:1011700098F4A881B9819A01201B310BA20FB31FEB
:10118000109731F0FA01262F01900D922A95E1F780
:101190000196465F5F4FE8CFC801DF91CF911F9165
:1011A0000F910C94C6299FEB980F963008F4875343
:1011B0008295807F9FEB960F963010F4675301C0A5
:1011C0006053860F08956F927F928F929F92AF9295
:1011D000BF92CF92DF92EF92FF920F931F93CF9324
:1011E000DF93CDB7DEB7CB58D1400FB6F894DEBF52
:1011F0000FBECDBF8C014B01DB019C91F8018581B5
:10120000981317C080E090E09A01215031098417AB
:10121000950751F08217930728F4F401E80FF91F9E
:10122000618160830196F3CF3C01F3E06F1A71088E
:1012300004C03A0122E0621A7108CE0101966C01E5
:101240005C01E12CF12C95012C193D09E614F70401
:1012500068F4F401EE0DFF1D61818081A4DFD501EA
:101260008D935D01B2E0EB0EF11CEDCF7901E1E071
:10127000EE1AF108D8011896ED91FC911997B70173
:10128000C6011995F601EE0DFF1D9081891351C01D
:101290003981F8018481831711F0311144C02B8109
:1012A000622F70E0660F771FFE013596AE01445F36
:1012B0005E4F6A01C601841B950B8617970780F461
:1012C000CF010197DC018C9190E0982F8827F08066
:1012D0008F0D911DD6018D939D936D013296EACFAE
:1012E000332351F0D801ED91FC910280F381E02D80
:1012F0006A81C801199525C08A81882331F0803C14
:1013000051F4F801648975890BC0D8015296ED91AA
:10131000FC91539713C0D80156966D917C915797C5
:10132000C80131DE0EC0D8015096ED91FC91519765
:1013300005C0D8011E96ED91FC911F97309709F0DA
:101340001995C557DE4F0FB6F894DEBF0FBECDBF5F
:10135000DF91CF911F910F91FF90EF90DF90CF9091
:10136000BF90AF909F908F907F906F9008950F9354
:101370001F93CF93DF93CDB7DEB7C951D1400FB6DE
:10138000F894DEBF0FBECDBFE9E1F9E042A123A191
:1013900094A1FE01E45FFE4F3CE0DF011D923A950F
:1013A000E9F760EF7BE07183608363ED70E0738346
:1013B0006283682F70E07583648350E057834683AF
:1013C00030E031872087892F90E09387828726E05D
:1013D000AF01BE01685E7E4FCE0101960E944D2096
:1013E000C85EDE4F48815981C851D14004E610E003
:1013F00020E030E0BE016F5F7F4F8FEA99E0DDDDD6
:10140000C75EDE4F0FB6F894DEBF0FBECDBFDF91D3
:10141000CF911F910F9108950F931F93CF93DF9357
:10142000EC01CB01088119817B836A830E943129F9
:101430009983888320E030E08C819D8128173907CB
:1014400070F4E881F981E20FF31F309729F0D80199
:10145000A20FB31F8C9180832F5F3F4FEDCFC80148
:10146000DF91CF911F910F910C94C629FC0144810B
:1014700055816417750750F49B012417350718F43C
:101480002F5F3F4FFACFFC017583648308950F935C
:101490001F93CF93DF93EC018B01FB018481958136
:1014A0009D838C8308969B838A830E94312999832C
:1014B000888320E030E08C819D812817390780F4F3
:1014C000F801A081B181A20FB31FE881F981E20F79
:1014D000F31F309711F08C9180832F5F3F4FEBCF3C
:1014E000DF91CF911F910F9108950F931F93CF9389
:1014F000DF93EC018B01DB0114968D919C91159784
:101500009D838C8308969B838A832AE0FC012E9F0F
:10151000C0012F9F900D11240E9431299983888347
:1015200080E090E020E030E06AE04C815D812417AB
:101530003507A0F4D801ED91FC91E80FF91FA881BF
:10154000B981A80FB91F109729F0462F01900D926D
:101550004A95E1F72F5F3F4F0A96E7CFDF91CF9192
:101560001F910F910895FC01808191810C94C629EF
:10157000DF92EF92FF920F931F93CF93DF93FC01C3
:101580002481358126173707E0F57A018B01EC01BC
:10159000828193818617970738F4685F7F4F86179B
:1015A000970710F4CF01C8DD2C813D818AE0829F2E
:1015B000B001839F700D112440E050E08AE0D82EE6
:1015C00020173107A0F4A881B981CA01860F971F9F
:1015D000A80FB91F109731F0F7018D2D01900D92D2
:1015E0008A95E1F72F5F3F4F465F5F4FE9CF1D833D
:1015F0000C83DF91CF911F910F91FF90EF90DF90BF
:101600000895DF91CF911F910F91FF90EF90DF90A0
:101610002DCFEF92FF920F931F93CF93DF93EC01A7
:101620008B016817790709F472C0DB0114966D917C
:101630007C9115978A819B818617970710F4CE01BC
:101640007BDD8C819D81F801248135818217930790
:1016500008F49C0180E090E040E050E06AE042172E
:10166000530799F0A881B981A80FB91FF801E0804C
:10167000F180F701E80FF91F762F01900D927A950E
:10168000E1F74F5F5F4F0A96EACF2C813D81D80189
:1016900014968D919C9115972817390758F0F801E9
:1016A000648175818C819D816817790780F5CE01F1
:1016B000DDDE2DC08AE0829FB001839F700D112472
:1016C00040E050E08AE0F82EF801848195812817E7
:1016D000390728F7D801ED91FC91CA01860F971FB1
:1016E000E80FF91FA881B981A80FB91F109729F039
:1016F0008F2D01900D928A95E1F78C819D81019645
:101700009D838C832F5F3F4F465F5F4FDDCFCE01C0
:10171000DF91CF911F910F91FF90EF900895FF926D
:101720000F931F93CF93DF93CDB7DEB7CE57D14042
:101730000FB6F894DEBF0FBECDBFF82E162FBE0138
:101740006F5F7F4FCE018A589E4F0E94401D83E0FD
:10175000E12F8F1558F0143008F0E3E0F0E0E55980
:10176000F64F048D412F6BE679E00AC0143008F083
:10177000E3E0F0E0E75EF64F048D412F69E179E0A8
:10178000CE0101961DDABE016F5F7F4FCE018A58F0
:101790009E4F3FDFCE0101960E94311D202F220F68
:1017A0002B5F80EF9BE0C45FDE4F99838883CC5032
:1017B000D14082ED90E0C25FDE4F99838883CE50A6
:1017C000D1408F2D90E0C05FDE4F99838883C05158
:1017D000D140412F50E0CE5EDE4F59834883C25145
:1017E000D140802F90E0CC5EDE4F99838883C45136
:1017F000D14001112CC0AE01445F5E4FBE01635861
:101800007E4FCE0101960E944D20C358DE4F488185
:101810005981CD57D14004E610E020E030E0BE0110
:101820006F5F7F4F8FEA99E0C8DBCE018A589E4FE9
:101830000E94311DC258DE4F0FB6F894DEBF0FBEB6
:10184000CDBFDF91CF911F910F91FF900895FE01C1
:10185000E45FFE4FCA58DE4FA881B981C657D14018
:10186000179685E090E0622F70E0861797071CF6C8
:101870004C9150E05387428711964D915C9112979D
:1018800055874487029634961A96EFCF682F8FECCF
:1018900098E00C949003009711F0FC0119940895BE
:1018A000AF92BF92CF92DF92EF92FF920F931F936E
:1018B000CF93DF93EC01CC80DD80C616D70608F00D
:1018C00048C07A018B018A819B818617970738F57A
:1018D0009B01285F3F4F8217930708F5A880B980C6
:1018E0003B832A83C901880F991F0E94312988836D
:1018F0009983D501FC0120E030E02C153D0561F015
:10190000309729F08D919C911197918380832F5F5F
:101910003F4F12963296F1CFC5010E94C6298C81A5
:101920009D819C01220F331F8017910778F4E88175
:10193000F981E20FF31F309729F0D7014D915C91A7
:101940005183408301962E5F3F4FEECF1D830C8362
:1019500005C06C157D0510F47D836C83DF91CF91FC
:101960001F910F91FF90EF90DF90CF90BF90AF90BD
:101970000895EF92FF920F931F93CF93DF93EC01A3
:101980008C819D818617970708F57A018B018A81E2
:101990009B818617970738F4685F7F4F86179707F4
:1019A00010F4CE0139DD8C819D818017910758F4A8
:1019B000E881F981E80FF91F309719F0D7012C91D0
:1019C00020830196F2CF1D830C8305C06817790729
:1019D00010F47D836C83DF91CF911F910F91FF9065
:1019E000EF9008952091CB0890911006213208F0D5
:1019F0004AC08091EE058111FCCF32E03093EE05B4
:101A000031E03093ED053FEF3093EC051092EB059C
:101A10002093EA05A0EFB5E04AEC55E0FA013E2F2D
:101A2000341B321718F43D913193F9CF1092C90548
:101A30002091C905990F922B9093C9059091C805E3
:101A4000913061F41092C8059091C9059093BB0044
:101A50009091BC0093FDF8CF95EC01C095EE90936A
:101A6000BC009091EE059230E1F39091EC059F3F20
:101A700079F08091EC05803241F08091EC05803363
:101A800031F084E005C081E003C082E001C083E062
:101A90001092CC081092CB081092EF050895909107
:101AA000EE059111FCCF613208F060E291E0909375
:101AB000EE059093ED052FEF2093EC051092EB05CA
:101AC000260F2093EA059093C9059091C905880FC8
:101AD000892B8093C9058091C805813061F41092EB
:101AE000C8058091C9058093BB008091BC0083FD2F
:101AF000F8CF85EC01C085EE8093BC008091EE05A7
:101B00008130E1F38091EB05861710F46091EB05CD
:101B1000AAECB5E028EA35E0F9018E2F821B861782
:101B200018F48D918193F9CF1092CE086093CD086F
:101B3000862F0895CF93DF93EC018091140991E0F3
:101B40009093EF05809310061092CC081092CB086A
:101B50008D2F90E09BDECE01992798DE43DF8091A8
:101B6000140961E070E090E09ADF8091CD0890E088
:101B70002091CE08821B9109181619062CF48FECBF
:101B800098E00E94450301C08FEFDF91CF91089547
:101B90000F931F93CF93DF931F92CDB7DEB78C01C6
:101BA0006983C8DF6981861711F18091140991E07A
:101BB0009093EF05809310061092CC081092CB08FA
:101BC000812F90E063DEC801992760DE69818FEC88
:101BD00098E00E94900306DF64E070E080E090E00F
:101BE0000F90DF91CF911F910F910C940F050F90E3
:101BF000DF91CF911F910F910895009769F0FC013B
:101C000001900020E9F73197AF01481B590BBC0147
:101C100081E196E00C94680180E090E00895FC0179
:101C2000A089B18982E08C93A485B5851C92A68594
:101C3000B78580E18C93108EA489B58986E08C935A
:101C4000A289B3898C9180618C93A289B3898C918C
:101C500088608C93A289B3898C9180688C93028868
:101C6000F389E02D80818F7D80830895CF93DF936A
:101C7000C4DFEC0180EF93E0C0DF8C0F9D1FDF918C
:101C8000CF9108958F929F92AF92BF920F931F931F
:101C9000CF93DF93CDB7DEB7A1970FB6F894DEBF31
:101CA0000FBECDBF19A2423008F44AE08E010F5D8D
:101CB0001F4F842E912CA12CB12CA50194010E94C0
:101CC000F828E62FB901CA0101501109EA3014F4CD
:101CD000E05D01C0E95CD801EC93232B242B252B7C
:101CE00061F7C8018ADFA1960FB6F894DEBF0FBE78
:101CF000CDBFDF91CF911F910F91BF90AF909F907B
:101D00008F9008958091B1099091B209DC01ED9115
:101D1000FC910480F581E02D19951816190664F4DC
:101D20008091B1099091B209DC01ED91FC9106809E
:101D3000F781E02D1995E6CF0895AF92BF92CF922B
:101D4000DF92EF92FF920F931F93CF93DF93CDB764
:101D5000DEB7C651D2400FB6F894DEBF0FBECDBF7E
:101D60006C015B01E02EF12CEE0CFF1CDA018C9172
:101D7000C45FDE4F8883CC50D14011968C91C35FF5
:101D8000DE4F8883CD50D140C25FDE4F0883CE50F6
:101D9000D140E114F10409F587010D5F1F4FE09177
:101DA000BF09F091C009B801CE01845F9E4F19951B
:101DB000ECE0F1E0EC0FFD1FE00FF11F8083B4E0D9
:101DC000EB0EF11CEE0CFF1CF501F182E082FE012E
:101DD000E45FFE4F40E050E032C06CE071E06C0F19
:101DE0007D1F6C5F7F4FF901808191813296AB013D
:101DF00041505109DA019C93DB018C936E5F7F4F58
:101E0000CF01821B930B8E159F0570F3C5CF919167
:101E1000292F30E084E0359527958A95E1F72A301F
:101E20003105A4F4205DD601A40FB51F2C939F703B
:101E30009A3070F4905D11969C934E5F5F4FD50180
:101E40008D919C914817590710F304C0295CEBCF82
:101E5000995CF1CF2091BC0929839601AE014E5FB8
:101E60005F4FB601680F791FD6017A01A617B70731
:101E700029F01D91FA011193AF01F8CFF701E80F96
:101E8000F91F4091BD094083FE01E80FF91F409101
:101E9000BE0943830396D5018D939C93AE014F5F9A
:101EA0005F4FFA01D5018D919C91BF01641B750BA9
:101EB0006817790728F48191D9018D939D01F2CF9C
:101EC000F601E80FF91F1082CA5EDD4F0FB6F894D5
:101ED000DEBF0FBECDBFDF91CF911F910F91FF905D
:101EE000EF90DF90CF90BF90AF9008950F931F9326
:101EF000CF93DF93CDB7DEB7CF50D1400FB6F89474
:101F0000DEBF0FBECDBF20EFC35FDE4F2883CD50B5
:101F1000D1402091BB09C45FDE4F2883CC50D14013
:101F200001E09C01AE01445F5E4FBE01625F7E4FE7
:101F3000CE01019602DFC25FDE4F48815981CE504B
:101F4000D14004E610E020E030E0BE016F5F7F4F3B
:101F50008FEA99E032D8C15FDE4F0FB6F894DEBF4A
:101F60000FBECDBFDF91CF911F910F9108950F93B9
:101F7000CF93DF931F921F92CDB7DEB731E73A833D
:101F80003091BB093983022F9A01AE014F5F5F4F39
:101F9000D4DE0F900F90DF91CF910F9108950F93A2
:101FA0001F93CF93DF93CDB7DEB7C551D1400FB6A6
:101FB000F894DEBF0FBECDBF843028F07093630964
:101FC0006093620904C07093AE096093AD09FE018D
:101FD000E45FFE4F98E0DF011D929A95E9F720EF4C
:101FE0003BE03183208321ED30E03383228390E096
:101FF000958384837783668324E0AF01BE016C5EA2
:102000007E4FCE010196B3DFCC5EDE4F4881598111
:10201000C451D14004E610E020E030E0BE016F5F23
:102020007F4F8FEA99E00E94DD07CB5EDE4F0FB64F
:10203000F894DEBF0FBECDBFDF91CF911F910F91FE
:1020400008950F931F93CF93DF93CDB7DEB7C5519C
:10205000D1400FB6F894DEBF0FBECDBF182F062FAC
:1020600082E090E09093FB038093FA0310923D048A
:1020700060933C041093F40380911609612F81173B
:1020800008F4682F609318098BEF9FEF81DD809132
:102090003C0460911509861708F4682F60931709AE
:1020A0008AEF9FEF75DDFE01E45FFE4F88E0DF0100
:1020B0001D928A95E9F780EF9BE09183808380ED04
:1020C00090E093838283812F90E095838483602FB7
:1020D00070E07783668324E0AF01BE016C5E7E4FC3
:1020E000CE01019644DFCC5EDE4F48815981C45158
:1020F000D14004E610E020E030E0BE016F5F7F4F8A
:102100008FEA99E00E94DD07CB5EDE4F0FB6F894B0
:10211000DEBF0FBECDBFDF91CF911F910F9108950C
:10212000CF93DF931F921F92CDB7DEB785E092E089
:102130009A838983CE010196D9DE0F900F90DF91AB
:10214000CF910895CF93DF931F921F92CDB7DEB743
:1021500084E092E09A838983CE010196C7DE0F90D6
:102160000F90DF91CF910895CF93DF931F921F922D
:10217000CDB7DEB783E092E09A838983CE010196E2
:10218000B5DE0F900F90DF91CF910895CF93DF933D
:102190001F921F92CDB7DEB782E092E09A838983C7
:1021A000CE010196A3DE0F900F90DF91CF9108959D
:1021B000CF93DF931F921F92CDB7DEB780E092E0FE
:1021C0009A838983CE01019691DE0F900F90DF9163
:1021D000CF910895CF93DF931F921F92CDB7DEB7B3
:1021E00085E091E09A838983CE0101967FDE0F908E
:1021F0000F90DF91CF910895CF93DF931F921F929D
:10220000CDB7DEB783E091E09A838983CE01019652
:102210006DDE0F900F90DF91CF910895CF93DF93F4
:102220001F921F92CDB7DEB782E091E09A83898337
:10223000CE0101965BDE0F900F90DF91CF91089554
:10224000DC018D919C911197803F9B4009F04AC021
:102250001296ED91FC911397FF27E05CF109E031B4
:10226000F10508F03FC08827EC57FF4F8F4F0C94C3
:102270001A29809102099091030938C0E09104095C
:10228000F0910509309799F114968C911BC0E0915B
:102290000609F0910709309751F116966C9116973F
:1022A00014968C91199414968C91E0910809F091F0
:1022B000090906C014968C91E0910A09F0910B0966
:1022C0003097A9F0199480910C0990910D090EC0D6
:1022D000809110099091110909C080910E09909187
:1022E0000F0904C08091120990911309D4CA08956E
:1022F000CF92DF92EF92FF920F931F93CF93DF93D2
:10230000CDB7DEB72F970FB6F894DEBF0FBECDBFA7
:102310008C01DC018D919C91803F9B4009F06AC14A
:10232000D8011296ED91FC911397FF27E05CF1091B
:10233000E031F10508F05EC18827EC56FF4F8F4F62
:102340000C941A29E091F008F091F108309709F403
:1023500056C1D80116966C91169714968C911995C2
:102360004EC1E091F208F091F308309709F447C1AB
:10237000D80116966D917C91179714968C911995AA
:102380003EC18091F4089091F508892B09F437C17A
:10239000F801C084D1847601FF24EE0CFF1C88E094
:1023A00090E09C878B871E861D8680E190E00E94CE
:1023B00031299A8789871A821982AE014F5F5F4F50
:1023C000B701CE0109966CDAF8013A96A985BA856B
:1023D00080E090E08E159F0531F0219131912D9391
:1023E0003D930196F7CFE090F408F090F508BE0118
:1023F000675F7F4FCE0101960E949D059E012F5F72
:102400003F4F4C2DD80116966C91169714968C91CF
:10241000F70119955CC0D80114968C9114978430FB
:1024200008F4E8C0E091F608F091F708309709F455
:10243000E6C01A962C911A9718964C9118971696F2
:102440006C911995DCC08091F8089091F908892B5E
:1024500009F4D5C0F801E680F78088E090E09C8719
:102460008B871E861D8680E190E00E9431299A8725
:1024700089871A8219826701DD24AE014F5F5F4FA1
:10248000B601CE0109960CDAF8013896A985BA850D
:1024900080E090E08C159D0531F0219131912D93D4
:1024A0003D930196F7CFC090F808D090F908BE018F
:1024B000675F7F4FCE0101960E949D05AE014F5F81
:1024C0005F4F6E2DD80114968C91F6011995CE01AF
:1024D00001960E94D305CE0109960E94D3058FC0B4
:1024E000D80114968C91E091FA08F091FB0830978E
:1024F00009F485C0199583C0E091FC08F091FD08AE
:10250000309709F47CC0D80150962C9150971E96B4
:102510003C911E971C964C911C971A965C911A97A9
:1025200018966C91189716967C91169714968D9123
:102530009C911597803DB7E09B0710F0805D974018
:102540009A8389837B836C835D834E833F83288753
:10255000CE010196199553C08091FE089091FF0815
:10256000892B09F44CC0F801E480F58088E090E004
:102570009C878B871E861D860E9431299A878987B2
:1025800019826701DD24AE014F5F5F4FB601CE01B6
:102590000996EFD9F801369620E030E02C153D057C
:1025A00051F0A985BA85A20FB31F808132968C9312
:1025B0002F5F3F4FF3CF0091FE081091FF08BE013F
:1025C000675F7F4FCE0101960E94470ABE016F5F91
:1025D0007F4F8E2DF8011995CE0101960E94B30A06
:1025E000CE0109960E94B30A0AC080910009909119
:1025F000010904C080911209909113094CD92F96BA
:102600000FB6F894DEBF0FBECDBFDF91CF911F9103
:102610000F91FF90EF90DF90CF9008950F931F934D
:10262000CF93DF93CDB7DEB7CF50D1400FB6F8943C
:10263000DEBF0FBECDBF84E1C35FDE4F8883CD50C8
:10264000D1408091BB09C45FDE4F8883CC50D1401C
:1026500000E22CEF33E0AE01445F5E4FBE01625FEB
:102660007E4FCE01019669DBC25FDE4F4881598102
:10267000CE50D14004E610E020E030E0BE016F5FB4
:102680007F4F8FEA99E00E94DD07C15FDE4F0FB6F2
:10269000F894DEBF0FBECDBFDF91CF911F910F9198
:1026A00008950F931F93CF93DF93EC018B010E944A
:1026B000750AB801695F7F4FCE0107960E94750ABF
:1026C000B801625F7F4FCE010E960E94750AB80175
:1026D0006B5E7F4FCE0145960E94750AF801848D8E
:1026E000958DA68DB78D8C8F9D8FAE8FBF8F80A15E
:1026F00091A199A388A3DF91CF911F910F91089584
:102700000C94000008950F931F93CF93DF93CDB7E0
:10271000DEB7C351D1400FB6F894DEBF0FBECDBFB8
:1027200080EF9CE0C45FDE4F99838883CC50D1401A
:1027300088E198E0C25FDE4F99838883CE50D14014
:1027400080E1CF5EDE4F8883C151D1408091BB09CB
:10275000C05FDE4F8883C051D14002E09E01245FFC
:102760003E4FAE01405F5E4FBE016E5E7E4FCE01BA
:102770000196E3DACE5EDE4F48815981C251D140E5
:1027800004E610E020E030E0BE016F5F7F4F8FEA8B
:1027900099E00E94DD07CD5EDE4F0FB6F894DEBFF4
:1027A0000FBECDBFDF91CF911F910F9108958AEC9D
:1027B00092E023CA85EE92E020CA8CEF92E01DCA17
:1027C000EF92FF920F931F93CF93DF9303E112E0F9
:1027D000CCEFD3E0EE24E394F12CF80181918F014A
:1027E0000E947C04892B19F4F982E88202C01982C4
:1027F00018822296F4E0CC30DF0779F70CE014E081
:10280000CBE1D2E0F801819191918F01892B11F0F8
:1028100061E001C060E088810E94A4042196F4E098
:102820000C331F0779F7DF91CF911F910F91FF9024
:10283000EF900895E0E0F2E020E030E090E04FEF2C
:102840005191581711F0992359F02330310529F08F
:102850009081DF0111979C9302C04093030291E0A5
:102860002F5F3F4F2430310559F708952F923F9243
:102870004F925F926F927F928F929F92AF92BF9290
:10288000CF92DF92EF92FF920F931F93CF93DF933C
:10289000CDB7DEB72B970FB6F894DEBF0FBECDBF16
:1028A000B82E8B0169017A01882331F082E193E02F
:1028B000A4D96091000205C086E193E09ED96091A1
:1028C000F80370E080E090E04AE0DCD98AE193E030
:1028D00094D9D8016C9170E080E090E04AE0D2D9C0
:1028E0008FE193E08AD96091090A70E080E090E07E
:1028F0004AE0C8D980EF93E080D9F8018081823026
:1029000009F087C08091080A811187C08091070A69
:1029100081110DC0C092030AD092040AE092050A08
:10292000F092060A81E08093070A109204028091D7
:10293000070A811102C081E011C18091030A9091C0
:10294000040AA091050AB091060AB701A601481B26
:10295000590B6A0B7B0B8091010A9091020A092E98
:10296000000CAA0BBB0B481759076A077B0718F323
:10297000A090EE092090ED093090EC09232D30E075
:10298000A0E1BEE00E9422292B013C01222D30E073
:10299000ACE3B0E00E942229DC01CB01840D951D3F
:1029A000A61DB71D9C01AD012A0D311D411D511DF4
:1029B000288739874A875B87412C512C812C912CA1
:1029C0008091090A90E088169906ECF439822A82EF
:1029D000AB82288539854A855B852C833D834E8370
:1029E0005F838091E9089091EA08BE016F5F7F4F95
:1029F000840D951D0E94D8053FEF831A930A4AE083
:102A0000440E511CDDCF81E08093080A80930402BC
:102A100004C01092070A1092080A8090090A8820C0
:102A200009F479C060E070E020E030E0AA24A394CB
:102A3000912C87E0782E28153905E4F54091E908B6
:102A40005091EA08460F571FFA01DE011196572CE4
:102A500001900D925A94E1F78C819D81AE81BF81E6
:102A6000FA015780E7E0E50D16012701281A390A17
:102A70004A0A5B0ADA0118964D915C911997CA01CE
:102A8000550FAA0BBB0BF0E0EE0FFF1FE450FC4FFD
:102A9000281639064A065B0618F01182108205C016
:102AA00041E050E051834083A12C2F5F3F4F665F90
:102AB0007F4FC1CF8A2DD8019C91913091F4A11004
:102AC00010C02091040430910504232B31F420918F
:102AD000060430910704232B21F084E293E0C6D84A
:102AE00081E0F8019081933099F4811114C08091B4
:102AF000080490910904892B39F480910A0490917B
:102B00000B04892B09F417CF8EE493E0AFD803C0F0
:102B1000882309F410CFD8018C918F5F843010F492
:102B20008C931BC0F8011082BB2021F08091000221
:102B300081DE13C08091F8038F5F8093F80390913A
:102B4000F403891728F081E08093F6031092F803CC
:102B50006091F8038CEF9FEF1BD880E02B960FB6A7
:102B6000F894DEBF0FBECDBFDF91CF911F910F91C3
:102B7000FF90EF90DF90CF90BF90AF909F908F909D
:102B80007F906F905F904F903F902F9008950F939C
:102B90001F93CF93DF93EC018B010E94090BB801C7
:102BA000695F7F4FCE0107960E94090BB801625FF3
:102BB0007F4FCE010E960E94090BB8016B5E7F4FCE
:102BC000CE0145960E94090BF801848D958DA68D46
:102BD000B78D8C8F9D8FAE8FBF8F80A191A199A350
:102BE00088A3CE01DF91CF911F910F9108955F923D
:102BF0006F927F928F929F92AF92BF92CF92DF920D
:102C0000EF92FF920F931F93CF93DF93CDB7DEB771
:102C1000A9970FB6F894DEBF0FBECDBF5090EE0956
:102C20001091ED090091EC09202F30E0A0E1BEE009
:102C30000E9422296B017C01212F30E0ACE3B0E03F
:102C40000E942229C60ED71EE81EF91EC50CD11CF3
:102C5000E11CF11CE0E0F2E080E091919F3F09F07F
:102C600081E092E0E430F907C1F78823F9F088E7C2
:102C700093E00E94360E809100029091000A98170E
:102C800029F09091FF0991111092FF099091FF098D
:102C9000911118C08093000A1092FE0981E0809380
:102CA000FF091092F7031092FD090CC08091FF09F3
:102CB000882341F01092F7031092FD091092FF094A
:102CC0001092FE098091FE09882329F08091FE0967
:102CD000811125C192C18091FF09882309F47BC02D
:102CE0008091FD0981111BC060910002CE01019607
:102CF0000E946620BE016F5F7F4F8DE899E047DF3D
:102D0000CE0101960E9436068091AD099091AE09E0
:102D10009093020A8093010A81E080930402E0917B
:102D2000FD09E43008F0E3E0F0E0E357F64F948C5F
:102D30009092090A60E070E089EE98E00E94360AFD
:102D400019821A821B821C821D821E821F82188693
:102D50001A861986A92CB12CAE014F5F5F4FB501C1
:102D600089EE98E00E94B80A911003C08EE893E0C3
:102D700095C04091FD096DE879E0CE0101960E9471
:102D8000E005BE016F5F7F4F89EE98E00E94090B5E
:102D9000CE01019666D6612C712C812C912C8A145F
:102DA0009B0424F709831A835B82CC82DD82EE8246
:102DB000FF828091E9089091EA08BE016F5F7F4F22
:102DC000860D971D0E94D8058FEF881A980A9AE001
:102DD000690E711CE4CF8091F703811136C06091B8
:102DE000F803CE0101960E943F21BE016F5F7F4F25
:102DF00082E499E0CCDE87E0FE01B396A4E6B9E078
:102E000001900D928A95E1F7CE0101960E94360657
:102E100080916209909163099093020A8093010A5C
:102E200087E0E4E6F9E0DE01119601900D928A95C3
:102E3000E1F787E0FE013196A2EEB8E001900D9235
:102E40008A95E1F781E080930402E091F703E43092
:102E500008F0E3E0F0E0EE5BF64F948C9092090A04
:102E600060E070E089EE98E00E94360A19821A82CA
:102E70001B821C821D821E821F8218861A8619865A
:102E8000A92CB12CAE014F5F5F4FB50189EE98E0E0
:102E90000E94B80A91100AC089EA93E00E94360E97
:102EA00081E08093FE09ECE0F4E032C04091F7034A
:102EB00062E479E0CE0101960E94E005BE016F5FF9
:102EC0007F4F89EE98E00E94090BCE010196C9D58B
:102ED000612C712C812C912C8A149B04ECF60983B3
:102EE0001A835B82CC82DD82EE82FF828091E908C8
:102EF0009091EA08BE016F5F7F4F860D971D0E947B
:102F0000D8058FEF881A980A9AE0690E711CE4CFF1
:102F10001192119284E0EC33F807D1F7D7CE80916B
:102F2000FF09882349F0A70196016DEF79E081E060
:102F30009DDC8093FE0961C08091F60381115DC024
:102F40008091FC09882351F08091F8039091FB094E
:102F5000981721F08093FB091092FC098091F703E8
:102F6000811137C08091FC09811133C08091E5083F
:102F70009091E608A091E708B091E808C816D90634
:102F8000EA06FB0630F1812C912CA12CB12C80910A
:102F9000090A90E0A816B906CCF409831A835B826B
:102FA000CC82DD82EE82FF828091E9089091EA086E
:102FB000BE016F5F7F4F880D991D0E94D8059FEF5E
:102FC000A91AB90A8AE0880E911CE1CF81E08093AA
:102FD000FC098091FC09882341F0A701960167EF65
:102FE00073E080E043DC8093FE098091FE0981114B
:102FF00004C083EC93E00E94360EA9960FB6F894B5
:10300000DEBF0FBECDBFDF91CF911F910F91FF901B
:10301000EF90DF90CF90BF90AF909F908F907F9078
:103020006F905F9008951F920F920FB60F92112428
:103030000BB60F922F933F934F935F936F937F93B2
:103040008F939F93AF93BF93EF93FF938091FA0376
:103050009091FB038230910561F49091F80981E031
:1030600089278093F8098091F809882379F061E035
:103070000EC02091F9093091FA092817390751F04B
:103080002091F9093091FA09892B89F360E085E3F1
:103090000E94A404FF91EF91BF91AF919F918F91F6
:1030A0007F916F915F914F913F912F910F900BBE48
:1030B0000F900FBE0F901F9018958EED93E00C941B
:1030C000FD0D0F931F93CF93DF93CDB7DEB7C75797
:1030D000D1400FB6F894DEBF0FBECDBF80EF9BE0AE
:1030E000C45FDE4F99838883CC50D14087ED90E058
:1030F000C25FDE4F99838883CE50D1402091F50383
:10310000422F50E0C05FDE4F59834883C051D14009
:103110006091DB087091DC08ACE0B1E0AC0FBD1F42
:103120001696FB01CF01861B970B841795072CF48D
:10313000819190E08D939D93F5CF2D5FAE01445F1B
:103140005E4FBE016A587E4FCE010196A6D7CA587F
:10315000DE4F48815981C657D14004E610E020E097
:1031600030E0BE016F5F7F4F8FEA99E00E94DD077C
:10317000C958DE4F0FB6F894DEBF0FBECDBFDF914A
:10318000CF911F910F9108950F931F93CF93DF93CA
:10319000CDB7DEB7CF51D1400FB6F894DEBF0FBE2A
:1031A000CDBFE7EEF9E0808191818053984F728125
:1031B00063815481458136812781FE01E45FFE4FA2
:1031C00012E1DF011D921A95E9F7A0EFBBE0B18390
:1031D000A083A6EDB0E0B383A2839927958384836F
:1031E000872F90E097838683862F90E09187808752
:1031F000852F90E093878287842F90E0958784873E
:10320000832F90E097878687822F90E0918B808B29
:1032100029E0AF01BE01625E7E4FCE0101963DD72F
:10322000C25EDE4F48815981CE51D14004E610E0A4
:1032300020E030E0BE016F5F7F4F8FEA99E00E948F
:10324000DD07C15EDE4F0FB6F894DEBF0FBECDBF07
:10325000DF91CF911F910F9108950F931F93CF93FB
:10326000DF93CDB7DEB7C351D1400FB6F894DEBFC0
:103270000FBECDBFFE01E45FFE4F86E0DF011D9271
:103280008A95E9F780EF9BE09183808385ED90E05C
:10329000938382838091F70390E09583848323E076
:1032A000AF01BE016E5E7E4FCE010196F6D6CE5EB8
:1032B000DE4F48815981C251D14004E610E020E040
:1032C00030E0BE016F5F7F4F8FEA99E00E94DD071B
:1032D000CD5EDE4F0FB6F894DEBF0FBECDBFDF91DF
:1032E000CF911F910F910895CF93DF931F921F925B
:1032F000CDB7DEB781E091E09A838983CE01019654
:103300000E94760F0F900F90DF91CF910895CF9389
:10331000DF931F921F92CDB7DEB781E092E09A83D0
:103320008983CE0101960E94760F0F900F90DF9156
:10333000CF910895CF93DF931F921F92CDB7DEB741
:10334000843048F481E091E09A838983CE0101962C
:103350000E94760F02C00E94B7090F900F90DF9174
:10336000CF910895CF93DF931F921F92CDB7DEB711
:10337000843028F490913C04891738F40FC02091D0
:10338000F4039CEF980F921748F081E091E09A8344
:103390008983CE0101960E94760F02C00E948F0B96
:1033A0000F900F90DF91CF9108950F931F93CF93BC
:1033B000DF93CDB7DEB7C551D1400FB6F894DEBF6D
:1033C0000FBECDBF182F8430C0F480913C04181775
:1033D00008F064C0612FCE01019678D6BE016F5F00
:1033E0007F4F8BE699E0D3DBCE0101960E94360633
:1033F00020918B0930918C0921C06CEF680F80916E
:10340000F403681708F04AC0CE01019638D7BE0110
:103410006F5F7F4F89E199E0BADB87E0FE01B396E9
:10342000ABE3B9E001900D928A95E1F7CE010196E8
:103430000E9436062091390930913A09FE01E45F75
:10344000FE4F88E0DF011D928A95E9F780EF9BE04F
:103450009183808381ED90E093838283812F90E03C
:10346000958384833783268324E0AF01BE016C5E9D
:103470007E4FCE01019611D6CC5EDE4F4881598138
:10348000C451D14004E610E020E030E0BE016F5F9F
:103490007F4F8FEA99E00E94DD0708C081E091E04C
:1034A0009A838983CE0101960E94760FCB5EDE4F10
:1034B0000FB6F894DEBF0FBECDBFDF91CF911F9145
:1034C0000F9108950F931F93CF93DF93CDB7DEB77E
:1034D000C551D1400FB6F894DEBF0FBECDBF8EEF01
:1034E0009FEF0E949A0D8D3F09F03FC0FE01E45FFF
:1034F000FE4F88E0DF011D928A95E9F780EF9BE09F
:103500009183808380ED90E0938382838091F403A4
:1035100090E09583848380913C0490E09783868338
:1035200024E0AF01BE016C5E7E4FCE010196B5D5A1
:10353000CC5EDE4F48815981C451D14004E610E091
:1035400020E030E0BE016F5F7F4F8FEA99E00E947C
:10355000DD07CB5EDE4F0FB6F894DEBF0FBECDBFEA
:10356000DF91CF911F910F9108951092F403109263
:103570003C04BCCF8F929F92AF92BF92EF92FF928A
:103580000F931F93CF93DF93CDB7DEB7C951D140CF
:103590000FB6F894DEBF0FBECDBFE82EF62E522F29
:1035A000E2E4F9E062A343A324A3042F10E098010E
:1035B000ACE3B0E00E9422294B015C01850E911C16
:1035C000A11CB11C2F2D30E0A0E1BEE00E942229F9
:1035D000DC01CB01880D991DAA1DBB1D85A396A3F7
:1035E000A7A3B0A7FE01E45FFE4F8CE0DF011D92B0
:1035F0008A95E9F780EF9BE09183808383ED90E0EB
:10360000938382838E2D90E095838483B9017783A1
:10361000668311870087252F30E03387228726E0D5
:10362000AF01BE01685E7E4FCE0101960E94B70FCA
:10363000C85EDE4F48815981C851D14004E610E090
:1036400020E030E0BE016F5F7F4F8FEA99E00E947B
:10365000DD07C75EDE4F0FB6F894DEBF0FBECDBFED
:10366000DF91CF911F910F91FF90EF90BF90AF909E
:103670009F908F9008950F931F93CF93DF93CDB7B3
:10368000DEB7C351D1400FB6F894DEBF0FBECDBF39
:1036900086E0E7E7F2E0DE01A45FBE4F01900D9205
:1036A0008A95E1F723E0AE01445F5E4FBE016E5E96
:1036B0007E4FCE0101960E94B70FCE5EDE4F48814D
:1036C0005981C251D14004E610E020E030E0BE0153
:1036D0006F5F7F4F8FEA99E00E94DD071092FB0336
:1036E0001092FA036DEF8EEF9FEF0E94C80D81E0FC
:1036F00080933D040C940000CD5EDE4F0FB6F8942D
:10370000DEBF0FBECDBFDF91CF911F910F91089506
:10371000EF92FF920F931F93CF93DF93CDB7DEB756
:10372000C757D1400FB6F894DEBF0FBECDBF7B01A7
:103730008093F5032091DF083091E008232B21F0DE
:103740001092E0081092DF081982082F10E0AE01F5
:103750004F5F5F4FB8018BED98E00E94B90C80E09D
:1037600090E0801791078CF4E091DB08F091DC0881
:10377000AF01480F591FF701A081B181A80FB91FF0
:103780002C91FA0120830196ECCF6BED78E0CE010D
:1037900001960E94470ABE016F5F7F4F8091F5033B
:1037A00055D4CE0101960E94B30A8091F50323E01F
:1037B000280F40EF5BE0C45FDE4F59834883CC5055
:1037C000D14047ED50E0C25FDE4F59834883CE5071
:1037D000D14090E0C05FDE4F99838883C051D140D3
:1037E0006091DB087091DC08ACE0B1E0AC0FBD1F6C
:1037F0001696FB01AF01461B570B481759072CF4CF
:10380000419150E04D935D93F5CFAE01445F5E4F23
:10381000BE016A587E4FCE0101960E94B70FCA586A
:10382000DE4F48815981C657D14004E610E020E0C0
:1038300030E0BE016F5F7F4F8FEA99E00E94DD07A5
:10384000C958DE4F0FB6F894DEBF0FBECDBFDF9173
:10385000CF911F910F91FF90EF9008956F927F92FB
:103860008F929F92AF92BF92CF92DF92EF92FF9290
:103870000F931F93CF93DF93CDB7DEB7C752D140DD
:103880000FB6F894DEBF0FBECDBFFC01C080D18063
:10389000560180E3A81A88EFB80A6280F38074802A
:1038A00085809680E780F092F903FE01E45FFE4F89
:1038B00082E1DF011D928A95E9F780EF9BE0918319
:1038C000808386ED90E093838283B582A482862DE7
:1038D00090E0978386838F2D90E091878087872D56
:1038E00090E093878287882D90E095878487892D43
:1038F00090E0978786878E2D90E0918B808B29E0D2
:10390000AF01BE016A5D7E4FCE0101960E94B70FE6
:10391000CA5DDE4F48815981C652D14004E610E0AD
:1039200020E030E0BE016F5F7F4F8FEA99E00E9498
:10393000DD07B0EDAB16B7E0BB0608F46501D09229
:10394000F009C092EF096092F109F092F2097092C9
:10395000F3098092F4099092F509E092F60988E063
:10396000EFEEF9E0DE01A25EBE4F01900D928A9566
:10397000E1F7CE01825E9E4FDFD20C940000C95D5C
:10398000DE4F0FB6F894DEBF0FBECDBFDF91CF91F3
:103990001F910F91FF90EF90DF90CF90BF90AF906D
:1039A0009F908F907F906F9008950F931F93CF9368
:1039B000DF93CDB7DEB7C351D1400FB6F894DEBF69
:1039C0000FBECDBF182F8091F403181748F081E087
:1039D00092E09A838983CE0101960E94760F35C0CA
:1039E000612F8CEF9FEF0E94C80D1092F703FE012C
:1039F000E45FFE4F86E0DF011D928A95E9F780EFD4
:103A00009BE09183808385ED90E093838283812F77
:103A100090E09583848323E0AF01BE016E5E7E4F0C
:103A2000CE0101960E94B70FCE5EDE4F48815981CC
:103A3000C251D14004E610E020E030E0BE016F5FEB
:103A40007F4F8FEA99E00E94DD07CD5EDE4F0FB613
:103A5000F894DEBF0FBECDBFDF91CF911F910F91C4
:103A6000089520E030E0FC0144815581241735079A
:103A700018F42F5F3F4FF7CF808191810C94C629B6
:103A8000CF93DF93EC0188E090E09B838A831D82D3
:103A90001C8280E590E00E94312999838883DF9120
:103AA000CF910895AF92BF92CF92DF92FF920F9382
:103AB0001F93CF93DF93CDB7DEB7C252D1400FB67D
:103AC000F894DEBF0FBECDBF082F162FF42E69016C
:103AD000BE016F5F7F4FCE01865E9E4FD1DF1982A0
:103AE0001A821B821C821D821E821F8218861A86E1
:103AF0001986AF2CB12CAE014F5F5F4FB501CE01DF
:103B0000865E9E4F0E94B80AB501660F771FC65E9B
:103B1000DE4FE881F981CA51D140379622E030E08A
:103B200080E090E086179707D4F4AC01440F551F4E
:103B3000D601AD90BC90D501A40FB51F4C91408328
:103B4000D6014D915C91DA01A20FB31F4D915C91AA
:103B50005283418302963A962C5F3F4FE3CFBE01DA
:103B6000665E7E4FCE010196043030F10E94750AE8
:103B70009E012F5F3F4F4F2D612F82E499E00E94FD
:103B80001706CE0101966DDF1330A9F562E479E0E6
:103B9000CE0101960E94511387E0E4E6F9E0DE01D0
:103BA000939601900D928A95E1F7BE016F5F7F4F6A
:103BB0008CEF800F4ED11BC00E94750A9E012F5FB3
:103BC0003F4F4F2D612F8DE899E00E941706CE01DF
:103BD000019647DF133079F46DE879E0CE01019664
:103BE0000E945113BE016F5F7F4F802FE4D0CE0142
:103BF00001960E943606FE01E45FFE4F8EE0DF0173
:103C00001D928A95E9F780EF9BE09183808382ED96
:103C100090E093838283802F90E095838483612F4B
:103C200070E07783668327E0AF01BE016F5D7E4F52
:103C3000CE0101960E94B70FCF5DDE4F48815981BA
:103C4000C152D14004E610E020E030E0BE016F5FD9
:103C50007F4F8FEA99E00E94DD07CE01865E9E4F7E
:103C600000DFCE5DDE4F0FB6F894DEBF0FBECDBFD6
:103C7000DF91CF911F910F91FF90DF90CF90BF9078
:103C8000AF9008954F925F926F927F928F929F9222
:103C9000AF92BF92CF92DF92EF92FF920F931F935A
:103CA000CF93DF93CDB7DEB766970FB6F894DEBF3C
:103CB0000FBECDBF8C015B01BE016F5F7F4FCE0198
:103CC0004096DEDE1A830983C8018C599F4F9C837E
:103CD0008B838C599F4F9E838D83045D1E4F188765
:103CE0000F83CE0101966C01E12CF12CF501EE0D54
:103CF000FF1D948CF601019111916F01692DC8018E
:103D00000E94C80D911021C0FFEFEF1AFF0A24E0B6
:103D1000E216F10459F7CE014096A3DE66960FB67F
:103D2000F894DEBF0FBECDBFDF91CF911F910F91F1
:103D3000FF90EF90DF90CF90BF90AF909F908F90CB
:103D40007F906F905F904F9008954E2DB501CE01FA
:103D500009960E94E005BE01675F7F4FCE01409645
:103D60000E94090BCE0109967CDEC801E3E09E9E0D
:103D7000800D911D11244C01612C712C0815190521
:103D800019F2E889F989E60DF71D508441846781AD
:103D9000C80101960E94C80D642DC80102960E94B8
:103DA000C80D0D5F1F4F652DC8010E94C80DFAE0B8
:103DB0006F0E711CE3CFBF92CF92DF92EF92FF9212
:103DC0000F931F93CF93DF93CDB7DEB7A2970FB6B4
:103DD000F894DEBF0FBECDBF90911709891748F543
:103DE0008B01FB01B0A061A120E931E0829F70014D
:103DF000839FF00C11246701F8E1CF1AFCEFDF0A72
:103E0000C701855B9B4F0E94C80D6B2DC701815573
:103E10009B4F0E94C80DB801CE0101960E9451131C
:103E2000BE016F5F7F4FC6012DDFCE0101960E945C
:103E30003606A2960FB6F894DEBF0FBECDBFDF9157
:103E4000CF911F910F91FF90EF90DF90CF90BF9097
:103E500008958F929F92AF92BF92CF92DF92EF928E
:103E6000FF920F931F93CF93DF93CDB7DEB7A29747
:103E70000FB6F894DEBF0FBECDBF90911809891719
:103E800008F047C08B01FB0180A061A120E931E06F
:103E9000829F7001839FF00C11246701F0EFCF1A0D
:103EA000F8EDDF0A97E0F801B296DE011196019075
:103EB0000D929A95E1F79980AA80BB80C7018D5831
:103EC000984D0E94C80D682DC7018952984D0E94D7
:103ED000C80D692DC701855C974D0E94C80D6A2DDC
:103EE000C7018256974D0E94C80D6B2DC7018156A0
:103EF000974D0E94C80DB801CE0101960E94511342
:103F0000BE016F5F7F4FC601BDDECE0101960E94EC
:103F10003606A2960FB6F894DEBF0FBECDBFDF9176
:103F2000CF911F910F91FF90EF90DF90CF90BF90B6
:103F3000AF909F908F900895EF92FF920F931F93F1
:103F4000CF938C01FC01E080F180C7018053984F32
:103F5000813DF7E09F0708F47C018091F70991E02B
:103F60009093EF05809310061092CC081092CB0826
:103F700060E08FEC98E00E949003F8018781CAE02E
:103F80006C2F0E94EC28692FF0E18F9F600D1124A7
:103F90008FEC98E00E949003F80186816C2F0E94BC
:103FA000EC28692FF0E18F9F600D11248FEC98E0D1
:103FB0000E949003F80185816C2F0E94EC28692FE4
:103FC000F0E18F9F600D11248FEC98E00E94900328
:103FD000F80184816C2F0E94EC28692FF0E18F9FFB
:103FE000600D11248FEC98E00E949003F80183810A
:103FF0006C2F0E94EC28692FF0E18F9F600D112437
:104000008FEC98E00E949003F80182816C2F0E944F
:10401000EC28692FF0E18F9F600D11248FEC98E060
:104020000E9490038E2D6C2F0E94EC28692F20E1B6
:10403000829F600D11248FEC98E00E949003CF9135
:104040001F910F91FF90EF900C94F20CEF92FF9262
:104050000F931F93CF93DF93082F7B01682F80E08E
:104060009AEF0E94C80DC0E0D0E010E0C017D10761
:104070006CF4D701ED91FC91EC0FFD1F6081CE0136
:104080008F5F95400E94C80D2196F0CFDF91CF91B0
:104090001F910F91FF90EF9008950F93CF93DF93AF
:1040A0001F921F92CDB7DEB731E13A833091BB0941
:1040B0003983022F9A01AE014F5F5F4F0E949D0E20
:1040C0000F900F90DF91CF910F9108953F924F92F3
:1040D0005F926F927F928F929F92AF92BF92CF9298
:1040E000DF92EF92FF920F931F93CF93DF93CDB7A1
:1040F000DEB769970FB6F894DEBF0FBECDBF7C0167
:10410000162F80911509681708F013E0C7010E9467
:104110004906BE016F5F7F4FCE014396B1DC80E957
:1041200091E0189F6001199FD00C1124C60188519D
:104130009C4F9C878B878C599F4F9E878D878C596E
:104140009F4F988B8F878C599F4F9A8B898B895C57
:1041500091090E949A0D182FC60181559B4F0E940C
:104160009A0D212F30E0322F2227280F311DF70121
:1041700031A320A35E01FBE0AF0EB11CD12CF501F1
:10418000019111915F01C8010E949A0DC82E8823E8
:1041900009F455C00F5F1F4F19821A821B821C82BF
:1041A0001D821E821F8218861A861986882E912CDF
:1041B000AE014F5F5F4FB401CE0143960E94B80A33
:1041C000612C712C412C512C4814590434F5C80130
:1041D0000E949A0DEB89FC89E60DF71D8783C801C3
:1041E00001960E949A0D382EC80102960E949A0DDF
:1041F000EB89FC89E60DF71D232D30E0322F2227B5
:10420000280F311D318720870D5F1F4FFFEF4F1A99
:104210005F0A8AE0680E711CD7CFBE016D5E7F4FCA
:10422000CE0101960E94750A9E012F5F3F4F4C2DD3
:104230006D2DC7010E941706CE01019612DCD394A2
:10424000E4E0DE129CCFCE0143960BDCC7016996F9
:104250000FB6F894DEBF0FBECDBFDF91CF911F9197
:104260000F91FF90EF90DF90CF90BF90AF909F9015
:104270008F907F906F905F904F903F9008953F9206
:104280004F925F926F927F928F929F92AF92BF9266
:10429000CF92DF92EF92FF920F931F93CF93DF9312
:1042A000CDB7DEB769970FB6F894DEBF0FBECDBFAE
:1042B0008C01D62E0E944906F80112A213A214A264
:1042C00015A216A217A210A6BE016F5F7F4FCE01E6
:1042D0004396D6DB80E991E0D89E7001D99EF00C20
:1042E0001124C701805F984D9C878B878C599F4F05
:1042F0009E878D878C599F4F988B8F878C599F4FA6
:104300009A8B898B895C91090E949A0DD82EC701DE
:104310008952984D0E949A0D2D2D30E0322F222780
:10432000280F311DF80131A320A3C7018156974DF5
:104330000E949A0DC82EC7018256974D0E949A0D71
:10434000D82EC701855C974D0E949A0DF80182A373
:10435000D3A2C4A2282F30E0A0E1BEE073D74B0166
:104360005C012D2D30E0ACE3B0E06CD7DC01CB017B
:10437000880D991DAA1DBB1D8C0D911DA11DB11D80
:1043800085A396A3A7A3B0A75E01FBE0AF0EB11C67
:10439000D12CF501E190F1905F01C7010E949A0DC7
:1043A000C82E882309F457C0FFEFEF1AFF0A1982BD
:1043B0001A821B821C821D821E821F8218861A8608
:1043C0001986882E912CAE014F5F5F4FB401CE014C
:1043D00043960E94B80A612C712C412C512C481430
:1043E00059043CF5C7010E949A0DEB89FC89E60D42
:1043F000F71D8783C70101960E949A0D382EC701C9
:1044000002960E949A0DEB89FC89E60DF71D232D7B
:1044100030E0322F2227280F311D3187208783E09B
:10442000E80EF11CEFEF4E1A5E0AFAE06F0E711CF7
:10443000D6CFBE016D5E7F4FCE0101960E94750AF8
:104440009E012F5F3F4F4C2D6D2DC8010E94170616
:10445000CE01019606DBD39484E0D8129ACFCE0128
:104460004396FFDAC80169960FB6F894DEBF0FBE17
:10447000CDBFDF91CF911F910F91FF90EF90DF9013
:10448000CF90BF90AF909F908F907F906F905F90F4
:104490004F903F900895CF92DF92EF92FF920F934B
:1044A0001F93CF93DF93EC0107EF19E0F8018081B0
:1044B00091E09093EF05809310061092CC08109233
:1044C000CB0860E08FEC98E00E9490030E94F20C11
:1044D000F801808167E070E090E00E944F0D8FEC62
:1044E00098E00E944503982F92959F708F70C82E78
:1044F000FAE09F9FC00C11248FEC98E00E944503C6
:10450000982F92959F708F70D82E2AE0929FD00C92
:1045100011248FEC98E00E944503982F92959F708C
:104520008F70182FEAE09E9F100D11248FEC98E0F9
:104530000E944503982F92959F708F70082FFAE084
:104540009F9F000D11248FEC98E00E944503982F47
:1045500092959F708F70F82E2AE0929FF00C112494
:104560008FEC98E00E944503982F92959F708F7072
:10457000E82EEAE09E9FE00C11248FEC98E00E9468
:104580004503982F92959F70282F2F70FAE09F9FD8
:10459000200D112430E039832883EA82FB820C83CA
:1045A0001D83DE82CF82CE01DF91CF911F910F91CB
:1045B000FF90EF90DF90CF900895CF93DF93CDB72A
:1045C000DEB7AA970FB6F894DEBF0FBECDBF7894C2
:1045D00084B5826084BD84B5816084BD85B5826008
:1045E00085BD85B5816085BD80916E0081608093B9
:1045F0006E00109281008091810082608093810022
:104600008091810081608093810080918000816031
:10461000809380008091B10084608093B10080918C
:10462000B00081608093B00080919100826080939F
:104630009100809191008160809391008091900021
:104640008160809390008091A10082608093A1009E
:104650008091A10081608093A1008091A000816081
:104660008093A0008091210182608093210180913C
:1046700021018160809321018091200181608093DC
:10468000200180917A00846080937A0080917A0082
:10469000826080937A0080917A00816080937A00B2
:1046A00080917A00806880937A001092C10081E145
:1046B00096E00E940F0E8DE792E00E94FD0D81E0D2
:1046C0008093BB090BE112E0D801FD908D0161E000
:1046D0008F2D0E94D30460E08F2D0E94A404B2E0CD
:1046E00003331B0789F703E112E0F801F1908F0112
:1046F00060E08F2D0E94D30460E08F2D0E94A404FF
:10470000F2E00B311F0789F703E312E0D801FD90B7
:104710008D0160E08F2D0E94D30461E08F2D0E94F7
:10472000A404B2E007331B0789F70BE012E0F8019D
:10473000F1908F0160E08F2D0E94D30461E08F2DF6
:104740000E94A404F2E003311F0789F78DED93E185
:104750009093B4098093B3098AED93E19093C609CD
:104760008093C50987ED93E19093C8098093C709A9
:1047700080E893E19093CA098093C90983E893E1A3
:104780009093D0098093CF0980E291E19093D20970
:104790008093D1098EE091E19093D4098093D3095D
:1047A0008CEF90E19093D6098093D5098EE093E148
:1047B0009093D8098093D7098AEE90E19093DA0913
:1047C0008093D90988ED90E19093DC098093DB090F
:1047D00088E791E19093DE098093DD0986EC90E112
:1047E0009093E0098093DF0984EB90E19093E209D4
:1047F0008093E10982EA90E19093E4098093E309D0
:1048000080E990E19093E6098093E50981E290E1E7
:104810009093F1088093F0088FEC9FE09093F30859
:104820008093F20882E59DE19093F5088093F40867
:104830008AEB9AE19093F7088093F60887E899E16C
:104840009093F9088093F80885ED9CE19093FB081C
:104850008093FA088EE29CE19093FD088093FC0817
:1048600088E89BE19093FF088093FE088BE39BE12F
:10487000909301098093000982E69AE190930309DD
:104880008093020985ED99E19093050980930409CD
:1048900082EB99E190930709809306098AE999E1EF
:1048A000909309098093080984E799E190930B0993
:1048B00080930A098DE299E190930D0980930C0988
:1048C00084EC98E1909311098093100981E698E1B6
:1048D00090930F0980930E098DE598E19093130949
:1048E000809312098EE697E09093B2098093B10904
:1048F0000E940F0E0E94820ECE010196CCDD88E050
:10490000FE013196A7EEB9E001900D928A95E1F78C
:104910008091EA098093F9031092CE081092CD0895
:104920001092CC081092CB080E94A707F89410921E
:10493000200188E0809321011092220182E080937F
:10494000730010922501109224018BE89CE3909350
:1049500029018093280178948091210184608093BB
:1049600021018EEF9FEF0E949A0D91E08D3F09F09B
:1049700090E090933D04992309F40AC11092FB033F
:104980001092FA0381E08093F6034091ED092091A3
:10499000EC0930E0A0E1BEE055D46B017C01242F8E
:1049A00030E0ACE3B0E04ED4C60ED71EE81EF91ED0
:1049B0008091EE09C80ED11CE11CF11C8BEF9FEF1A
:1049C0000E949A0DA82E8093F4038AEF9FEF0E9415
:1049D0009A0D80933C0400E010E0B12CA7E09A2EE1
:1049E0000A151B05ACF5602FCE01019648DCBE010F
:1049F0006F5F7F4F82E499E00E94C715FE01B39676
:104A0000A4E6B9E0892D01900D928A95E1F7CE01D7
:104A100001960E943606E4E6F9E0DE011196892D42
:104A200001900D928A95E1F78C819D81AE81BF81C5
:104A30008C159D05AE05BF0518F40F5F1F4FD0CF35
:104A40000093F8031092F60387EB92E00E94FD0DAD
:104A50008091F8038F3F21F09091F403891710F0B3
:104A60001092F80380E09AEF0E949A0D8093F5036C
:104A700080E09AEF0E949A0DE82E88E090E09C83F7
:104A80008B831E821D82EDD39A8389831AA6F12C13
:104A9000AE01465D5F4FB701CE0101960E94B90C91
:104AA00000E010E00E151F0574F4C980DA80C00E16
:104AB000D11EC8018F5F95400E949A0DD6018C933C
:104AC0000F5F1F4FEFCF6D817E818091DD08909148
:104AD000DE088617970720F48BED98E00E940C0AF9
:104AE0008091DF089091E0082D813E818217930725
:104AF00008F49C0180E090E08217930771F0E9814F
:104B0000FA81E80FF91F4081E091DB08F091DC08A1
:104B1000E80FF91F40830196EFCF8091DF08909155
:104B2000E0082D813E818217930738F18D819E81A7
:104B30002091DF083091E0088217930720F59093C9
:104B4000E0088093DF081FC0A981BA81A80FB91FB0
:104B5000E091DB08F091DC08E80FF91F309711F0C5
:104B60002C9120832091DF083091E0082F5F3F4F88
:104B70003093E0082093DF0801962D813E81821753
:104B8000930710F3D3CFCE0101960E94B30A06C05B
:104B900081E090E09093FB038093FA037724739471
:104BA000E8E06E2EAA24A394B12C0091BB09809159
:104BB000B1099091B209DC01ED91FC910480F5817D
:104BC000E02D1995181619060CF073C08091B109E3
:104BD0009091B209DC01ED91FC910680F781E02D06
:104BE00019958A3321F710923F0410923E040E94D7
:104BF00047056B017C0110E08091B1099091B209E9
:104C0000DC01ED91FC910480F581E02D19951816D9
:104C10001906CCF58091B1099091B209DC01ED91B2
:104C2000FC910680F781E02D199540913E0450914A
:104C30003F04FA01E05CFB4F80834F5F5F4F50936E
:104C40003F0440933E04112369F08A3059F4FA017D
:104C5000E05CFB4F108260E474E087EB99E00E9417
:104C6000E30827C011E08D3009F010E04230510513
:104C700051F460914104809140040E94D308801750
:104C800011F0811116C00E944705DC01CB018C197F
:104C90009D09AE09BF094E97A105B10508F4ACCF37
:104CA0000E94820EE091B309F091B409309709F0A7
:104CB00019950E94470500915405109155052091C2
:104CC000560530915705DC01CB01801B910BA20BDF
:104CD000B30B843F9140A105B10508F067C18091F5
:104CE000EE0990E0A0E0B0E04091500550915105F0
:104CF0006091520570915305481759076A077B0761
:104D000009F4FBC00E944705609354057093550554
:104D100080935605909357058091EE0990E0A0E0AE
:104D2000B0E08093500590935105A0935205B09345
:104D3000530580913D04882309F4DFC08CE892E09C
:104D40000E94FD0D6091EC0970E080E090E04AE087
:104D50000E94420E8DE992E00E94FD0D6091ED09E6
:104D600070E080E090E04AE00E94420E8DE992E01F
:104D70000E94FD0D6091EE0970E080E090E04AE055
:104D80000E94420E80EF93E00E94FD0D0E94F715F5
:104D90001091F5031123B9F18DE30E947C04892B56
:104DA00009F011C164E170E080E090E00E940F051D
:104DB0008DE30E947C04892B09F005C170924B059C
:104DC00061E080914B058823F1F02091DB08309160
:104DD000DC08D901812F90E0462F50E0FD01E21B55
:104DE000F30BE817F9074CF4ED91F0E0EE0FFF1F1D
:104DF000E65FFB4F51834083F1CF611104C01092F5
:104E00004B050E94F7150E94E01386E992E00E948C
:104E1000FD0D0CE014E04801D401CD90DD904D0172
:104E20000D2C000CEE08FF08F7FE14C0E0911106EF
:104E3000F09112060190F081E02D6DE281E196E0A3
:104E4000199566277727CB016C197D098E099F0973
:104E50004AE003C04AE0C701B6010E94420E8FE952
:104E600092E00E94FD0DBCE38B16B4E09B06A1F618
:104E700081EF93E00E94360E9091F9038091EA0948
:104E8000981759F01092F8031092F7031092F60356
:104E900060E08CEF9FEF0E94C80D80910402882390
:104EA00061F18091FC039091FD03892B91F4809135
:104EB000FE039091FF03892B61F48091000490918F
:104EC0000104892B31F48091020490910304892B11
:104ED000A1F081EA92E00E94360E10923D04B09259
:104EE000FB03A092FA03F801119211928F01F4E0F2
:104EF0000C331F07C1F70E94E01380913D04882303
:104F000009F451C00E94470500914C0510914D05D0
:104F100020914E0530914F05DC01CB01801B910B98
:104F2000A20BB30B893E9340A105B105E0F183E3E9
:104F3000E82E82E0F82E10E0D7010D917D01802F40
:104F40000E947C04892B61F564E170E080E090E0D0
:104F50000E940F05802F0E947C04892B09F50E9476
:104F6000470560934C0570934D0580934E059093D3
:104F70004F05A0E0B2E0FD018191811731F122E0FF
:104F8000E430F207C9F780913C04181748F480E038
:104F900090E02D912F3FE9F4FC01E050FE4F10838B
:104FA0001F5F143049F60E945502FFCDCE010196D5
:104FB00072DAFE013196A7EEB9E0862D01900D92CE
:104FC0008A95E1F78CCE60E0FCCE812F0E941A1406
:104FD000E7CF019684309105E1F6E2CF8BED98E0C2
:104FE0000E94B30A89EE98E00E94311D89E199E0A0
:104FF0000E94360682E499E00E9436068BE699E02C
:105000000E9436068DE899E00C9436060F931F93A4
:10501000CF93DF931F92CDB7DEB7E1E1F6E01382C5
:10502000128288EE93E0A0E0B0E084839583A683AB
:10503000B7832BE332E03183208345E351E055878A
:10504000448744E351E05787468740E351E0518B62
:10505000408B41E351E0538B428B42E351E0558B4F
:10506000448B46E351E0578B468B118E128E138E84
:10507000148EEEE6F7E01382128284839583A68372
:10508000B7833183208325EC30E03587248724ECF7
:1050900030E03787268720EC30E0318B208B21EC05
:1050A00030E0338B228B22EC30E0358B248B26ECE6
:1050B00030E0378B268B118E128E138E148EEFEC10
:1050C000F8E01382128284839583A683B7838BE4EE
:1050D00092E0918380831092CE081092CD081092B6
:1050E000CC081092CB080E94A70788E68093F709A6
:1050F000EFEEF9E081E190E0918380838AE08283A2
:1051000095E0938314E014839EE095839CE096835E
:105110001782E7EBF9E091E0948320E338E03187F0
:1051200020879AE395839DE09683878383E792E0C7
:105130009183808383E692E09093B0098093AF09D6
:105140008DE899E00E9449068BE699E00E944906A5
:1051500082E499E00E944906E2E4F9E012A213A277
:1051600014A215A216A217A210A689E199E00E9426
:105170004906E9E1F9E012A213A214A215A216A2AF
:1051800017A210A6E4E1F9E080E58083118382E3B1
:105190008283BE016F5F7F4F89EE98E00E94401DC1
:1051A000E2EEF8E0108211821282138214821582DC
:1051B00016820BED18E088E090E0F801938382837B
:1051C000158214824ED0F801918380830F90DF9175
:1051D000CF911F910F910895991B79E004C0991FF9
:1051E000961708F0961B881F7A95C9F78095089541
:1051F000A1E21A2EAA1BBB1BFD010DC0AA1FBB1FDB
:10520000EE1FFF1FA217B307E407F50720F0A21B4C
:10521000B30BE40BF50B661F771F881F991F1A94B9
:1052200069F760957095809590959B01AC01BD01E3
:10523000CF010895EE0FFF1F881F8BBF0790F691D7
:10524000E02D1994A29FB001B39FC001A39F700DE0
:10525000811D1124911DB29F700D811D1124911D7E
:105260000895CF93DF938230910510F482E090E0AF
:10527000E0910C0AF0910D0A20E030E0C0E0D0E0AF
:10528000309711F14081518148175907C0F04817F4
:10529000590761F482819381209719F09B838A8357
:1052A0002BC090930D0A80930C0A26C0211531055E
:1052B00019F04217530718F49A01BE01DF01EF01FC
:1052C0000280F381E02DDCCF2115310509F1281B87
:1052D000390B2430310590F412968D919C911397DF
:1052E0006115710521F0FB019383828304C09093C3
:1052F0000D0A80930C0AFD01329644C0FD01E20FB5
:10530000F31F81939193225031092D933C933AC01E
:1053100020910A0A30910B0A232B41F420910702B5
:105320003091080230930B0A20930A0A209105025B
:10533000309106022115310541F42DB73EB7409159
:10534000090250910A02241B350BE0910A0AF091E0
:105350000B0AE217F307A0F42E1B3F0B281739079F
:1053600078F0AC014E5F5F4F2417350748F04E0FC1
:105370005F1F50930B0A40930A0A8193919302C0D6
:10538000E0E0F0E0CF01DF91CF9108950F931F93FC
:10539000CF93DF93009709F48CC0FC0132971382FE
:1053A000128200910C0A10910D0A0115110581F469
:1053B00020813181820F931F20910A0A30910B0ABC
:1053C0002817390779F5F0930B0AE0930A0A71C0A0
:1053D000D80140E050E0AE17BF0750F412962D916F
:1053E0003C911397AD012115310509F1D901F3CF96
:1053F0009D01DA013383228360817181860F971FBB
:105400008217930769F4EC0128813981260F371F31
:105410002E5F3F4F318320838A819B8193838283D8
:10542000452B29F4F0930D0AE0930C0A42C0139621
:10543000FC93EE931297ED01499159919E01240F2F
:10544000351FE217F30771F480819181840F951F56
:10545000029611969C938E938281938113969C93CE
:105460008E931297E0E0F0E0D80112968D919C9116
:105470001397009719F0F8018C01F6CF8D919C914C
:1054800098012E5F3F4F820F931F20910A0A30919F
:105490000B0A2817390769F4309729F410920D0A7E
:1054A00010920C0A02C01382128210930B0A00930E
:1054B0000A0ADF91CF911F910F91089581E090E04A
:1054C000F89400C011E0C5E3D1E000E005C0802FF2
:1054D000FE01B0DE2196011DC633D10780E008072A
:0654E000B1F7F894FFCFC4
:1054E600FFFFFFFF0100000E0A80003E3F404142E1
:1054F600434445060708090A0B0C0D161718191A16
:105506001B1C1D1E1F202122232425262728292A6D
:105516002B2C2D3A3B3C3D00000000EE016801B407
:10552600019301A6013402000000009003610359B3
:105536000345033603350300000000BE03BE030027
:10554600000000DD07CA0700000000BE03BE03001E
:10555600000000E3083C08F00BDF000000537973FD
:1055660074656D2053746172740D0A00436C6F6329
:105576006B202D3E200053686F7720494F203A203C
:105586000053797374656D20656D657267656E632A
:10559600792073746F700046696E64207265636566
:1055A6006E742074696D650D0A004F636375722011
:1055B600756E6B6E6F77207061727365206572729F
:1055C6006F720D0A00506172736520636865636BC4
:1055D60073756D206572726F720D0A00536572697C
:1055E600616C20726563762074696D656F75740DE4
:1055F6000A00453A2000443A200020503A20002074
:105606004C3A20005265636976652044492035206E
:105616006F72203620696E7075742C2073746F70EB
:10562600207468652070726F63657373310052650C
:10563600636976652044492037206F7220382069D7
:105646006E7075742C2073746F702074686520708A
:10565600726F6365737333002F2A2A2A2A2F204814
:1056660061766520656D657267656E637900526562
:10567600616420636F6E6669672066726F6D206570
:105686006D657267656E6379005265616420636F4C
:105696006E6669672066726F6D20646174657469F1
:1056A6006D65004461746574696D652074696D6526
:1056B600206368616E676520696E64657800506175
:1056C600727365206F63637572206572726F7220E4
:0456D6000D0A0000B9
:00000001FF
